{
  "contractName": "CarPoolDApp",
  "abi": [
    {
      "inputs": [],
      "stateMutability": "nonpayable",
      "type": "constructor"
    },
    {
      "anonymous": false,
      "inputs": [
        {
          "indexed": false,
          "internalType": "address",
          "name": "parent",
          "type": "address"
        }
      ],
      "name": "LogAddParentToBlacklist",
      "type": "event"
    },
    {
      "anonymous": false,
      "inputs": [
        {
          "indexed": false,
          "internalType": "string",
          "name": "name",
          "type": "string"
        }
      ],
      "name": "LogAddParentToCarPool",
      "type": "event"
    },
    {
      "anonymous": false,
      "inputs": [
        {
          "indexed": false,
          "internalType": "address",
          "name": "parent",
          "type": "address"
        }
      ],
      "name": "LogAdvanceParentTrip",
      "type": "event"
    },
    {
      "anonymous": false,
      "inputs": [
        {
          "indexed": false,
          "internalType": "address",
          "name": "parent",
          "type": "address"
        }
      ],
      "name": "LogDeleteParentFromCarpool",
      "type": "event"
    },
    {
      "anonymous": false,
      "inputs": [],
      "name": "LogEndCarpoolBlock",
      "type": "event"
    },
    {
      "anonymous": false,
      "inputs": [
        {
          "indexed": false,
          "internalType": "address",
          "name": "parent",
          "type": "address"
        }
      ],
      "name": "LogParentTrip",
      "type": "event"
    },
    {
      "anonymous": false,
      "inputs": [
        {
          "indexed": false,
          "internalType": "address",
          "name": "parent",
          "type": "address"
        }
      ],
      "name": "LogParentTripInitlized",
      "type": "event"
    },
    {
      "anonymous": false,
      "inputs": [],
      "name": "LogStartCarpoolBlock",
      "type": "event"
    },
    {
      "anonymous": false,
      "inputs": [
        {
          "indexed": false,
          "internalType": "address",
          "name": "parent",
          "type": "address"
        }
      ],
      "name": "LogWarningBlacklist",
      "type": "event"
    },
    {
      "anonymous": false,
      "inputs": [
        {
          "indexed": true,
          "internalType": "address",
          "name": "previousOwner",
          "type": "address"
        },
        {
          "indexed": true,
          "internalType": "address",
          "name": "newOwner",
          "type": "address"
        }
      ],
      "name": "OwnershipTransferred",
      "type": "event"
    },
    {
      "inputs": [],
      "name": "owner",
      "outputs": [
        {
          "internalType": "address",
          "name": "",
          "type": "address"
        }
      ],
      "stateMutability": "view",
      "type": "function"
    },
    {
      "inputs": [],
      "name": "parentCount",
      "outputs": [
        {
          "internalType": "uint256",
          "name": "",
          "type": "uint256"
        }
      ],
      "stateMutability": "view",
      "type": "function"
    },
    {
      "inputs": [],
      "name": "parentId",
      "outputs": [
        {
          "internalType": "uint256",
          "name": "",
          "type": "uint256"
        }
      ],
      "stateMutability": "view",
      "type": "function"
    },
    {
      "inputs": [],
      "name": "renounceOwnership",
      "outputs": [],
      "stateMutability": "nonpayable",
      "type": "function"
    },
    {
      "inputs": [
        {
          "internalType": "address",
          "name": "newOwner",
          "type": "address"
        }
      ],
      "name": "transferOwnership",
      "outputs": [],
      "stateMutability": "nonpayable",
      "type": "function"
    },
    {
      "inputs": [],
      "name": "tripBlockSize",
      "outputs": [
        {
          "internalType": "uint256",
          "name": "",
          "type": "uint256"
        }
      ],
      "stateMutability": "view",
      "type": "function"
    },
    {
      "inputs": [
        {
          "internalType": "string",
          "name": "_name",
          "type": "string"
        }
      ],
      "name": "addParentToCarpool",
      "outputs": [
        {
          "internalType": "uint256",
          "name": "message",
          "type": "uint256"
        }
      ],
      "stateMutability": "nonpayable",
      "type": "function"
    },
    {
      "inputs": [
        {
          "internalType": "address",
          "name": "parent",
          "type": "address"
        }
      ],
      "name": "removeParentFromCarpool",
      "outputs": [
        {
          "internalType": "bool",
          "name": "",
          "type": "bool"
        }
      ],
      "stateMutability": "nonpayable",
      "type": "function"
    },
    {
      "inputs": [
        {
          "internalType": "address",
          "name": "parent",
          "type": "address"
        }
      ],
      "name": "scheduleTrip",
      "outputs": [
        {
          "internalType": "bool",
          "name": "",
          "type": "bool"
        }
      ],
      "stateMutability": "nonpayable",
      "type": "function"
    },
    {
      "inputs": [
        {
          "internalType": "address",
          "name": "parent",
          "type": "address"
        }
      ],
      "name": "scheduleTripAndSwap",
      "outputs": [
        {
          "internalType": "bool",
          "name": "",
          "type": "bool"
        }
      ],
      "stateMutability": "nonpayable",
      "type": "function"
    },
    {
      "inputs": [],
      "name": "startCarpoolBlock",
      "outputs": [],
      "stateMutability": "nonpayable",
      "type": "function"
    }
  ],
  "bytecode": "0x608060405234801561001057600080fd5b5061002d61002261003960201b60201c565b61004160201b60201c565b60018081905550610105565b600033905090565b60008060009054906101000a900473ffffffffffffffffffffffffffffffffffffffff169050816000806101000a81548173ffffffffffffffffffffffffffffffffffffffff021916908373ffffffffffffffffffffffffffffffffffffffff1602179055508173ffffffffffffffffffffffffffffffffffffffff168173ffffffffffffffffffffffffffffffffffffffff167f8be0079c531659141344cd1fd0a4f28419497f9722a3daafe3b4186f6b6457e060405160405180910390a35050565b611e06806101146000396000f3fe608060405234801561001057600080fd5b50600436106100a95760003560e01c8063715018a611610071578063715018a6146101665780638da5cb5b14610170578063a869307d1461018e578063f2fde38b146101be578063fb207be8146101da578063fe64eb4b146101f8576100a9565b80630a56a6b8146100ae578063186e811b146100de57806345b557ae146100fc57806347b48b381461012c5780635c684ea414610136575b600080fd5b6100c860048036038101906100c391906115bd565b610216565b6040516100d59190611605565b60405180910390f35b6100e66103fe565b6040516100f39190611639565b60405180910390f35b610116600480360381019061011191906115bd565b610404565b6040516101239190611605565b60405180910390f35b610134610911565b005b610150600480360381019061014b919061179a565b610a4e565b60405161015d9190611639565b60405180910390f35b61016e610ccc565b005b610178610d54565b60405161018591906117f2565b60405180910390f35b6101a860048036038101906101a391906115bd565b610d7d565b6040516101b59190611605565b60405180910390f35b6101d860048036038101906101d391906115bd565b611103565b005b6101e26111fb565b6040516101ef9190611639565b60405180910390f35b610200611201565b60405161020d9190611639565b60405180910390f35b6000600460003373ffffffffffffffffffffffffffffffffffffffff1673ffffffffffffffffffffffffffffffffffffffff16815260200190815260200160002060020154600460003373ffffffffffffffffffffffffffffffffffffffff1673ffffffffffffffffffffffffffffffffffffffff16815260200190815260200160002060010154146103eb576003600460003373ffffffffffffffffffffffffffffffffffffffff1673ffffffffffffffffffffffffffffffffffffffff168152602001908152602001600020600401541215610384576001600460003373ffffffffffffffffffffffffffffffffffffffff1673ffffffffffffffffffffffffffffffffffffffff16815260200190815260200160002060040160008282546103419190611846565b925050819055507fe8371cfb52cf50a857bb19b53da385fc18cbc6e01c16cdc3395aff7c134457648260405161037791906117f2565b60405180910390a16103e6565b6001600560008473ffffffffffffffffffffffffffffffffffffffff1673ffffffffffffffffffffffffffffffffffffffff16815260200190815260200160002060006101000a81548160ff0219169083151502179055506103e582611207565b5b6103f5565b6103f482611207565b5b60019050919050565b60015481565b6000600460003373ffffffffffffffffffffffffffffffffffffffff1673ffffffffffffffffffffffffffffffffffffffff1681526020019081526020016000206001015461045233611303565b1261045c57600080fd5b600060038111156104705761046f6118da565b5b600660009054906101000a900460ff166003811115610492576104916118da565b5b1480156105135750600060038111156104ae576104ad6118da565b5b600460003373ffffffffffffffffffffffffffffffffffffffff1673ffffffffffffffffffffffffffffffffffffffff16815260200190815260200160002060050160009054906101000a900460ff1660038111156105105761050f6118da565b5b14155b156106ee576000600460003373ffffffffffffffffffffffffffffffffffffffff1673ffffffffffffffffffffffffffffffffffffffff16815260200190815260200160002060050160006101000a81548160ff0219169083600381111561057e5761057d6118da565b5b02179055506002546003546105939190611938565b600460003373ffffffffffffffffffffffffffffffffffffffff1673ffffffffffffffffffffffffffffffffffffffff168152602001908152602001600020600101819055506000600460003373ffffffffffffffffffffffffffffffffffffffff1673ffffffffffffffffffffffffffffffffffffffff16815260200190815260200160002060020181905550600460003373ffffffffffffffffffffffffffffffffffffffff1673ffffffffffffffffffffffffffffffffffffffff1681526020019081526020016000206003015460006106709190611846565b600460003373ffffffffffffffffffffffffffffffffffffffff1673ffffffffffffffffffffffffffffffffffffffff168152602001908152602001600020600301819055507f1394f535cec9ccb644e011e28301f7d21758d5a4101f260dc4e400a86e363dff826040516106e591906117f2565b60405180910390a15b600460003373ffffffffffffffffffffffffffffffffffffffff1673ffffffffffffffffffffffffffffffffffffffff1681526020019081526020016000206001015461073a33611303565b12156107d2576001600460003373ffffffffffffffffffffffffffffffffffffffff1673ffffffffffffffffffffffffffffffffffffffff16815260200190815260200160002060020160008282546107939190611846565b925050819055507ffc30e0fc09573dbddde46c77134799c1c017c953491a1040017cb9f9753cbbed826040516107c991906117f2565b60405180910390a15b60016003546107e19190611969565b600381905550600460003373ffffffffffffffffffffffffffffffffffffffff1673ffffffffffffffffffffffffffffffffffffffff1681526020019081526020016000206001015461083333611303565b14156108a5576002600460003373ffffffffffffffffffffffffffffffffffffffff1673ffffffffffffffffffffffffffffffffffffffff16815260200190815260200160002060050160006101000a81548160ff0219169083600381111561089f5761089e6118da565b5b02179055505b60006003541415610908576002600660006101000a81548160ff021916908360038111156108d6576108d56118da565b5b02179055507fa1edf0ae687ac010f9902c75ea950be61f0f9804c0527da3b4e9d08eb3e3ad0560405160405180910390a15b60019050919050565b61091961139c565b73ffffffffffffffffffffffffffffffffffffffff16610937610d54565b73ffffffffffffffffffffffffffffffffffffffff161461098d576040517f08c379a0000000000000000000000000000000000000000000000000000000008152600401610984906119fa565b60405180910390fd5b6000600660006101000a81548160ff021916908360038111156109b3576109b26118da565b5b02179055506000600590506000600190505b6005811015610a1e576000600254836109de9190611a1a565b14156109f05781600381905550610a0b565b6001816109fd9190611a4b565b82610a089190611aa1565b91505b8080610a1690611afb565b9150506109c5565b507f31677957149a5e19fec4b7bba2adebaa44eb0fc7992a15b323b262db74dc095360405160405180910390a150565b600060056002541115610a6057600080fd5b33600560008273ffffffffffffffffffffffffffffffffffffffff1673ffffffffffffffffffffffffffffffffffffffff16815260200190815260200160002060009054906101000a900460ff16610ab757600080fd5b600060035414610ac657600080fd5b6040518060e001604052808481526020017fffffffffffffffffffffffffffffffffffffffffffffffffffffffffffffffff81526020017fffffffffffffffffffffffffffffffffffffffffffffffffffffffffffffffff81526020016000815260200160008152602001600380811115610b4457610b436118da565b5b81526020013373ffffffffffffffffffffffffffffffffffffffff16815250600460003373ffffffffffffffffffffffffffffffffffffffff1673ffffffffffffffffffffffffffffffffffffffff1681526020019081526020016000206000820151816000019080519060200190610bbe929190611468565b506020820151816001015560408201518160020155606082015181600301556080820151816004015560a08201518160050160006101000a81548160ff02191690836003811115610c1257610c116118da565b5b021790555060c08201518160050160016101000a81548173ffffffffffffffffffffffffffffffffffffffff021916908373ffffffffffffffffffffffffffffffffffffffff16021790555090505060018054610c6f9190611a4b565b6001819055506001600254610c849190611a4b565b6002819055507f2e46f73bac3724fb37efea114d258dde33a29267ffd6057863b9811771783b8983604051610cb99190611bbb565b60405180910390a1600154915050919050565b610cd461139c565b73ffffffffffffffffffffffffffffffffffffffff16610cf2610d54565b73ffffffffffffffffffffffffffffffffffffffff1614610d48576040517f08c379a0000000000000000000000000000000000000000000000000000000008152600401610d3f906119fa565b60405180910390fd5b610d5260006113a4565b565b60008060009054906101000a900473ffffffffffffffffffffffffffffffffffffffff16905090565b6000806003811115610d9257610d916118da565b5b600660009054906101000a900460ff166003811115610db457610db36118da565b5b14610dbe57600080fd5b600460003373ffffffffffffffffffffffffffffffffffffffff1673ffffffffffffffffffffffffffffffffffffffff16815260200190815260200160002060020154600460003373ffffffffffffffffffffffffffffffffffffffff1673ffffffffffffffffffffffffffffffffffffffff1681526020019081526020016000206001015414610e4e57600080fd5b6003600460003373ffffffffffffffffffffffffffffffffffffffff1673ffffffffffffffffffffffffffffffffffffffff168152602001908152602001600020600301541215610f89576001600460003373ffffffffffffffffffffffffffffffffffffffff1673ffffffffffffffffffffffffffffffffffffffff1681526020019081526020016000206003016000828254610eec9190611846565b925050819055506001600460008473ffffffffffffffffffffffffffffffffffffffff1673ffffffffffffffffffffffffffffffffffffffff1681526020019081526020016000206002016000828254610f469190611bdd565b925050819055507f8f1efa1ba84ead6edb41b74b46a68769d3e10960871091b5208bb9cbc84da7d082604051610f7c91906117f2565b60405180910390a1610fc4565b6040517f08c379a0000000000000000000000000000000000000000000000000000000008152600401610fbb90611cbd565b60405180910390fd5b6001600354610fd39190611969565b600381905550600460003373ffffffffffffffffffffffffffffffffffffffff1673ffffffffffffffffffffffffffffffffffffffff1681526020019081526020016000206001015461102533611303565b1415611097576002600460003373ffffffffffffffffffffffffffffffffffffffff1673ffffffffffffffffffffffffffffffffffffffff16815260200190815260200160002060050160006101000a81548160ff02191690836003811115611091576110906118da565b5b02179055505b600060035414156110fa576002600660006101000a81548160ff021916908360038111156110c8576110c76118da565b5b02179055507fa1edf0ae687ac010f9902c75ea950be61f0f9804c0527da3b4e9d08eb3e3ad0560405160405180910390a15b60019050919050565b61110b61139c565b73ffffffffffffffffffffffffffffffffffffffff16611129610d54565b73ffffffffffffffffffffffffffffffffffffffff161461117f576040517f08c379a0000000000000000000000000000000000000000000000000000000008152600401611176906119fa565b60405180910390fd5b600073ffffffffffffffffffffffffffffffffffffffff168173ffffffffffffffffffffffffffffffffffffffff1614156111ef576040517f08c379a00000000000000000000000000000000000000000000000000000000081526004016111e690611d4f565b60405180910390fd5b6111f8816113a4565b50565b60025481565b60035481565b600460008273ffffffffffffffffffffffffffffffffffffffff1673ffffffffffffffffffffffffffffffffffffffff1681526020019081526020016000206000808201600061125791906114ee565b60018201600090556002820160009055600382016000905560048201600090556005820160006101000a81549060ff02191690556005820160016101000a81549073ffffffffffffffffffffffffffffffffffffffff0219169055505060016002546112c39190611969565b6002819055507f1e95f181b83d5984c57d2656532b745ab6ae1e57a24a639cb247708ba6b3ae87816040516112f891906117f2565b60405180910390a150565b6000600460008373ffffffffffffffffffffffffffffffffffffffff1673ffffffffffffffffffffffffffffffffffffffff16815260200190815260200160002060030154600460008473ffffffffffffffffffffffffffffffffffffffff1673ffffffffffffffffffffffffffffffffffffffff168152602001908152602001600020600201546113959190611846565b9050919050565b600033905090565b60008060009054906101000a900473ffffffffffffffffffffffffffffffffffffffff169050816000806101000a81548173ffffffffffffffffffffffffffffffffffffffff021916908373ffffffffffffffffffffffffffffffffffffffff1602179055508173ffffffffffffffffffffffffffffffffffffffff168173ffffffffffffffffffffffffffffffffffffffff167f8be0079c531659141344cd1fd0a4f28419497f9722a3daafe3b4186f6b6457e060405160405180910390a35050565b82805461147490611d9e565b90600052602060002090601f01602090048101928261149657600085556114dd565b82601f106114af57805160ff19168380011785556114dd565b828001600101855582156114dd579182015b828111156114dc5782518255916020019190600101906114c1565b5b5090506114ea919061152e565b5090565b5080546114fa90611d9e565b6000825580601f1061150c575061152b565b601f01602090049060005260206000209081019061152a919061152e565b5b50565b5b8082111561154757600081600090555060010161152f565b5090565b6000604051905090565b600080fd5b600080fd5b600073ffffffffffffffffffffffffffffffffffffffff82169050919050565b600061158a8261155f565b9050919050565b61159a8161157f565b81146115a557600080fd5b50565b6000813590506115b781611591565b92915050565b6000602082840312156115d3576115d2611555565b5b60006115e1848285016115a8565b91505092915050565b60008115159050919050565b6115ff816115ea565b82525050565b600060208201905061161a60008301846115f6565b92915050565b6000819050919050565b61163381611620565b82525050565b600060208201905061164e600083018461162a565b92915050565b600080fd5b600080fd5b6000601f19601f8301169050919050565b7f4e487b7100000000000000000000000000000000000000000000000000000000600052604160045260246000fd5b6116a78261165e565b810181811067ffffffffffffffff821117156116c6576116c561166f565b5b80604052505050565b60006116d961154b565b90506116e5828261169e565b919050565b600067ffffffffffffffff8211156117055761170461166f565b5b61170e8261165e565b9050602081019050919050565b82818337600083830152505050565b600061173d611738846116ea565b6116cf565b90508281526020810184848401111561175957611758611659565b5b61176484828561171b565b509392505050565b600082601f83011261178157611780611654565b5b813561179184826020860161172a565b91505092915050565b6000602082840312156117b0576117af611555565b5b600082013567ffffffffffffffff8111156117ce576117cd61155a565b5b6117da8482850161176c565b91505092915050565b6117ec8161157f565b82525050565b600060208201905061180760008301846117e3565b92915050565b6000819050919050565b7f4e487b7100000000000000000000000000000000000000000000000000000000600052601160045260246000fd5b60006118518261180d565b915061185c8361180d565b9250817f7fffffffffffffffffffffffffffffffffffffffffffffffffffffffffffffff0383136000831215161561189757611896611817565b5b817f80000000000000000000000000000000000000000000000000000000000000000383126000831216156118cf576118ce611817565b5b828201905092915050565b7f4e487b7100000000000000000000000000000000000000000000000000000000600052602160045260246000fd5b7f4e487b7100000000000000000000000000000000000000000000000000000000600052601260045260246000fd5b600061194382611620565b915061194e83611620565b92508261195e5761195d611909565b5b828204905092915050565b600061197482611620565b915061197f83611620565b92508282101561199257611991611817565b5b828203905092915050565b600082825260208201905092915050565b7f4f776e61626c653a2063616c6c6572206973206e6f7420746865206f776e6572600082015250565b60006119e460208361199d565b91506119ef826119ae565b602082019050919050565b60006020820190508181036000830152611a13816119d7565b9050919050565b6000611a2582611620565b9150611a3083611620565b925082611a4057611a3f611909565b5b828206905092915050565b6000611a5682611620565b9150611a6183611620565b9250827fffffffffffffffffffffffffffffffffffffffffffffffffffffffffffffffff03821115611a9657611a95611817565b5b828201905092915050565b6000611aac82611620565b9150611ab783611620565b9250817fffffffffffffffffffffffffffffffffffffffffffffffffffffffffffffffff0483118215151615611af057611aef611817565b5b828202905092915050565b6000611b0682611620565b91507fffffffffffffffffffffffffffffffffffffffffffffffffffffffffffffffff821415611b3957611b38611817565b5b600182019050919050565b600081519050919050565b60005b83811015611b6d578082015181840152602081019050611b52565b83811115611b7c576000848401525b50505050565b6000611b8d82611b44565b611b97818561199d565b9350611ba7818560208601611b4f565b611bb08161165e565b840191505092915050565b60006020820190508181036000830152611bd58184611b82565b905092915050565b6000611be88261180d565b9150611bf38361180d565b9250827f800000000000000000000000000000000000000000000000000000000000000001821260008412151615611c2e57611c2d611817565b5b827f7fffffffffffffffffffffffffffffffffffffffffffffffffffffffffffffff018213600084121615611c6657611c65611817565b5b828203905092915050565b7f43616e20646f20616e79206d6f7265206164646974696f6e616c207472697073600082015250565b6000611ca760208361199d565b9150611cb282611c71565b602082019050919050565b60006020820190508181036000830152611cd681611c9a565b9050919050565b7f4f776e61626c653a206e6577206f776e657220697320746865207a65726f206160008201527f6464726573730000000000000000000000000000000000000000000000000000602082015250565b6000611d3960268361199d565b9150611d4482611cdd565b604082019050919050565b60006020820190508181036000830152611d6881611d2c565b9050919050565b7f4e487b7100000000000000000000000000000000000000000000000000000000600052602260045260246000fd5b60006002820490506001821680611db657607f821691505b60208210811415611dca57611dc9611d6f565b5b5091905056fea26469706673582212208a781fc5b183eef0211ac4150e8c6784060d4444e42b3fcd45b7d0f64ce0250664736f6c63430008090033",
  "immutableReferences": {},
  "source": "\r\n\r\n// SPDX-License-Identifier: MIT\r\npragma solidity >=0.8.0;\r\n\r\nimport \"@openzeppelin/contracts/access/Ownable.sol\";\r\nimport \"@openzeppelin/contracts/utils/math/SignedSafeMath.sol\";\r\nimport \"@openzeppelin/contracts/utils/math/SafeMath.sol\";\r\n\r\ncontract CarPoolDApp is Ownable{\r\n\r\n  //address public owner;\r\n  using SafeMath for uint;\r\n  using SignedSafeMath for int;\r\n\r\n  uint public parentId;\r\n\r\n  uint public parentCount;\r\n\r\n  uint public tripBlockSize;\r\n\r\n  mapping(address => ParentInfo) parentTrips;\r\n\r\n  mapping(address => bool) blacklistedParents;\r\n\r\n  uint constant MAXPARENTS = 5;\r\n\r\n  uint constant MAX_ADVANCETRIPS = 3;\r\n\r\n // bool carPoolBlockStarted;\r\n\r\n // bool prevBlockCompleted = false;\r\n\r\n\r\n  enum State {Start, InProgress, End, Init}\r\n\r\n  State globalCarpoolState;\r\n\r\n  struct ParentInfo{\r\n    string name;\r\n    int totalTripsToDo;\r\n    int tripsCompleted;\r\n    int advanceTripsCompleted;\r\n    int deleteAttempt;\r\n    State tripState;\r\n    address parentSwapFrom;\r\n   // address parentSwapTo;\r\n  }\r\n  \r\n  /* \r\n   * Events\r\n   */\r\n\r\n  event LogParentTrip(address parent);\r\n\r\n  event LogAdvanceParentTrip(address parent);\r\n\r\n  event LogAddParentToCarPool(string name);\r\n\r\n  event LogDeleteParentFromCarpool(address parent);\r\n\r\n event LogAddParentToBlacklist(address parent);\r\n\r\n event LogParentTripInitlized(address parent);\r\n\r\n event LogStartCarpoolBlock();\r\n \r\n event LogEndCarpoolBlock();\r\n\r\n event LogWarningBlacklist(address parent);\r\n\r\n  \r\n  /* \r\n   * Modifiers\r\n   */\r\n\r\n  // Create a modifer, `isOwner` that checks if the msg.sender is the owner of the contract\r\n\r\n  // <modifier: isOwner\r\n\r\n  // modifier isOwner (address _address) { \r\n  //    require (owner == _address); \r\n  //   _;\r\n  // }\r\n\r\n  modifier checkParentCanBeAdded(){\r\n    require (parentCount <= MAXPARENTS);\r\n    _;\r\n  }\r\n\r\n  modifier isParentBlackListed(address parent){\r\n    require (blacklistedParents[parent]);\r\n    _;\r\n  }\r\n\r\n   modifier requiredTripsNotComplete(){\r\n    require ( getTotalTrips (msg.sender) < parentTrips[msg.sender].totalTripsToDo);\r\n    _;\r\n  }\r\n\r\n modifier currentScheduleNotStarted(){\r\n    require (tripBlockSize == 0);\r\n    _;\r\n  }\r\n\r\n   modifier requiredTripsCompleted(){\r\n    require (parentTrips[msg.sender].totalTripsToDo == parentTrips[msg.sender].tripsCompleted);\r\n    _;\r\n  }\r\n\r\n  modifier currentScheduleRunning(){\r\n\r\n    require(globalCarpoolState == State.Start);\r\n    _;\r\n  }\r\n\r\n  constructor()  {\r\n  //  owner = msg.sender;\r\n    parentId = 1;\r\n\r\n    // 1. Set the owner to the transaction sender\r\n    \r\n  }\r\n\r\n    // 1. Check if the parent can be added at this time.\r\n    //   - This is determined by whether the already added parents have completed their pickup schedules. \r\n    //   - Minimum 2 parents needed to start, so the first 2 parents will skip this check.\r\n    // 2. Calculate the tripBlockSize For e.g if there are 4 parents already added, we want to allocate 2 weeks = 10 trips .\r\n    // So the tripBlockSize=5, each parent needs to do 5 trips in 2 weeks to be equitable to the schedule\r\n    // 3. Make sure the parent is NOT in the blacklist\r\n    //    -  if they are in blacklist \r\n    //      - emit event \r\n    //      - return false\r\n    // 4. If parent is added\r\n    //    - increment parentCount\r\n    //    - set the schduleCount in the mapping parentTrips\r\n    //    - return true\r\n    // 5. If the parent cant be added and are not blacklisted\r\n    //   -  emit the event\r\n    //   -  show when they can be added next\r\n    //   - return false\r\n  function addParentToCarpool(string memory _name) checkParentCanBeAdded() isParentBlackListed(msg.sender) currentScheduleNotStarted() public returns (uint message) {\r\n    \r\n    parentTrips[msg.sender]=ParentInfo({\r\n      name: _name,\r\n      totalTripsToDo: -1,\r\n      tripsCompleted: -1,\r\n      advanceTripsCompleted: 0,\r\n      deleteAttempt: 0,\r\n      tripState: State.Init,\r\n      parentSwapFrom: msg.sender\r\n     // parentSwapTo: address(0)\r\n    });\r\n  \r\n    parentId = parentId+1;\r\n    parentCount = parentCount+1;\r\n    emit LogAddParentToCarPool(_name);\r\n    return parentId;\r\n  }\r\n\r\n\r\n  // 1. Check if the parent can be removed from carpool - If its in the middle of tripBlockSize, all parents are NOT done with their quota, \r\n  // check the allowBlacklist mapping.\r\n  // 2. If all parents are done with their quota, \r\n  //    - remove them from mapping\r\n  //    - emit event\r\n  //    - decrement parentCount\r\n  //    - return true\r\n  //    - ignore allowBlacklist\r\n  // 3. If all parents are not done , and allowBlacklist is false\r\n  //   - dont remove them from mapping\r\n  //   - show an error message asking them to wait \r\n  //   - dont decrement parentCount\r\n  //   -  emit a message \r\n  //   - return false\r\n  // 4. If all parents are not done , and allowBlacklist is true\r\n  //   - show an message telling they will be removed and blacklisted and cannot be readded\r\n  //    - remove them from mapping\r\n  //    - emit event\r\n  //    - decrement parentCount\r\n  //    - add to blacklist\r\n  //    - return true\r\n  function removeParentFromCarpool (address parent)  public returns (bool){\r\n\r\n    if(parentTrips[msg.sender].totalTripsToDo != parentTrips[msg.sender].tripsCompleted){\r\n      if(parentTrips[msg.sender].deleteAttempt < 3){\r\n        parentTrips[msg.sender].deleteAttempt +=1;\r\n      emit LogWarningBlacklist(parent);\r\n      } else {\r\n        blacklistedParents[parent]=true;\r\n        deleteParentMapping(parent);\r\n      }\r\n    }else {\r\n      deleteParentMapping(parent);\r\n    }\r\n\r\nreturn true;\r\n  }\r\n\r\n function deleteParentMapping (address parent)  private {\r\n\r\n      delete parentTrips[parent];\r\n      parentCount = parentCount -1;\r\n      emit LogDeleteParentFromCarpool(parent);\r\n\r\n  }\r\n\r\n   function getTotalTrips (address parent)  private view returns (int){\r\n\r\n      return parentTrips[parent].tripsCompleted + parentTrips[parent].advanceTripsCompleted;\r\n\r\n  }\r\n\r\n// 1. When a parent schdules a trip, we need to decrement his trip count\r\n//   - decrement parent trip count\r\n//   - emit event\r\n//   - return true\r\n// 2. If the tripCount for the parent reaches 0\r\n//   - they are done with their tripBlock and can relax until the next!\r\n//   - emit event\r\n//   - return true\r\n// 3. Parents may want to do extra trips atfter they reach 0, to swap their scschedule with the next block \r\n//    - allow only maximum of 3 additional trips to add to future (so their trip count can be max -3)\r\n//       - emit event\r\n//       - return true\r\n//    - if tripCount is already -3, they should not be allowed to schdule more trips \r\n//       - emit event\r\n//       - return false\r\n  function scheduleTrip(address parent) requiredTripsNotComplete() public returns (bool){\r\n\r\n        if(globalCarpoolState == State.Start && parentTrips[msg.sender].tripState != State.Start){\r\n          parentTrips[msg.sender].tripState = State.Start;\r\n          parentTrips[msg.sender].totalTripsToDo = int(tripBlockSize / parentCount);\r\n          parentTrips[msg.sender].tripsCompleted = 0;\r\n          parentTrips[msg.sender].advanceTripsCompleted = 0 + parentTrips[msg.sender].advanceTripsCompleted;\r\n          emit LogParentTripInitlized( parent);\r\n        }\r\n    \r\n        if(getTotalTrips(msg.sender) < parentTrips[msg.sender].totalTripsToDo ){\r\n              parentTrips[msg.sender].tripsCompleted +=1;\r\n              emit LogParentTrip( parent);\r\n        }\r\n\r\n      \r\n      tripBlockSize = tripBlockSize-1;\r\n      if(getTotalTrips(msg.sender) == parentTrips[msg.sender].totalTripsToDo){\r\n        parentTrips[msg.sender].tripState = State.End;\r\n      }\r\n      if(tripBlockSize == 0){\r\n  //      carPoolBlockStarted=false;\r\n  //      prevBlockCompleted = true;\r\n        globalCarpoolState = State.End;\r\n        emit LogEndCarpoolBlock();\r\n      }\r\n    \r\n    return true;\r\n  }\r\n\r\n  function scheduleTripAndSwap(address parent) currentScheduleRunning() requiredTripsCompleted() public returns (bool){\r\n\r\n        // if(parentTrips[msg.sender].tripState == State.Init){\r\n        //   parentTrips[msg.sender].tripState = State.Start;\r\n        //   parentTrips[msg.sender].totalTripsToDo = tripBlockSize / parentCount;\r\n        //   parentTrips[msg.sender].tripsCompleted = 0;\r\n        //   parentTrips[msg.sender].advanceTripsCompleted = 0;\r\n        //   emit LogParentTripInitlized( parent);\r\n        // }\r\n        // if(parentTrips[msg.sender].tripState == State.End && carPoolBlockStarted){\r\n        //   parentTrips[msg.sender].tripState = State.Start;\r\n        //   parentTrips[msg.sender].totalTripsToDo = tripBlockSize / parentCount;\r\n        //   if(parentTrips[msg.sender].advanceTripsCompleted !=0)\r\n        //   parentTrips[msg.sender].tripsCompleted = 0 + parentTrips[msg.sender].advanceTripsCompleted;\r\n        //   parentTrips[msg.sender].advanceTripsCompleted = 0;\r\n        //   emit LogParentTripInitlized( parent);\r\n        // }\r\n         if (parentTrips[msg.sender].advanceTripsCompleted < int(MAX_ADVANCETRIPS)){\r\n              parentTrips[msg.sender].advanceTripsCompleted +=1;\r\n              parentTrips[parent].tripsCompleted -=1; \r\n              emit LogAdvanceParentTrip( parent);\r\n        } else{\r\n              revert(\"Can do any more additional trips\");\r\n            }\r\n\r\n      \r\n      tripBlockSize = tripBlockSize-1;\r\n      if(getTotalTrips(msg.sender) == parentTrips[msg.sender].totalTripsToDo ){\r\n        parentTrips[msg.sender].tripState = State.End;\r\n      }\r\n      if(tripBlockSize == 0){\r\n       globalCarpoolState = State.End;\r\n       emit LogEndCarpoolBlock();\r\n      }\r\n    \r\n    return true;\r\n  }\r\n\r\n// Start the new carpoolBlock when the trips in allocated block are completed\r\n// 1. Calculate carpoolblock based on the number of parents\r\n// 2. Initialize the tripCount of the parents to their currentValue + new schduled trips\r\n// 3. If the total tripCount exceeds maxValue meaning the parents are not contributing to carpool\r\n//    - remove parent with blacklisted=true\r\n//    - emit event\r\n// 4. Emit event\r\n function startCarpoolBlock() public onlyOwner {\r\n\r\n // carPoolBlockStarted=true;\r\n  globalCarpoolState = State.Start;\r\n  uint maxTripsWeek = 5;\r\n  for(uint i=1;i<MAXPARENTS;i++){\r\n   if(maxTripsWeek % parentCount ==0){\r\n    tripBlockSize = maxTripsWeek;\r\n  } else {\r\n    maxTripsWeek = maxTripsWeek * (i+1);\r\n  }\r\n }\r\n   emit LogStartCarpoolBlock();\r\n  }\r\n}\r\n",
  "sourcePath": "C:\\code\\bc\\blockchain-developer-bootcamp-final-project\\contracts\\CarPoolDApp.sol",
  "compiler": {
    "name": "solc",
    "version": "0.8.9+commit.e5eed63a.Emscripten.clang"
  },
  "schemaVersion": "3.4.3",
  "updatedAt": "2021-11-06T19:28:33.453Z",
  "devdoc": {
    "kind": "dev",
    "methods": {
      "owner()": {
        "details": "Returns the address of the current owner."
      },
      "renounceOwnership()": {
        "details": "Leaves the contract without owner. It will not be possible to call `onlyOwner` functions anymore. Can only be called by the current owner. NOTE: Renouncing ownership will leave the contract without an owner, thereby removing any functionality that is only available to the owner."
      },
      "transferOwnership(address)": {
        "details": "Transfers ownership of the contract to a new account (`newOwner`). Can only be called by the current owner."
      }
    },
    "version": 1
  },
  "userdoc": {
    "kind": "user",
    "methods": {},
    "version": 1
  }
}